{
  "contractName": "MedicineTemperatureTracker",
  "abi": [
    {
      "anonymous": false,
      "inputs": [
        {
          "indexed": false,
          "internalType": "string",
          "name": "medicineId",
          "type": "string"
        },
        {
          "indexed": false,
          "internalType": "uint256",
          "name": "temperature",
          "type": "uint256"
        }
      ],
      "name": "MedicineRegistered",
      "type": "event"
    },
    {
      "anonymous": false,
      "inputs": [
        {
          "indexed": false,
          "internalType": "string",
          "name": "medicineId",
          "type": "string"
        },
        {
          "indexed": false,
          "internalType": "uint256",
          "name": "temperature",
          "type": "uint256"
        },
        {
          "indexed": false,
          "internalType": "string",
          "name": "phase",
          "type": "string"
        }
      ],
      "name": "TemperatureUpdated",
      "type": "event"
    },
    {
      "constant": true,
      "inputs": [
        {
          "internalType": "string",
          "name": "",
          "type": "string"
        }
      ],
      "name": "medicines",
      "outputs": [
        {
          "internalType": "uint256",
          "name": "tempRegistration",
          "type": "uint256"
        },
        {
          "internalType": "uint256",
          "name": "tempDistributor",
          "type": "uint256"
        },
        {
          "internalType": "uint256",
          "name": "tempPharmacy",
          "type": "uint256"
        }
      ],
      "payable": false,
      "stateMutability": "view",
      "type": "function"
    },
    {
      "constant": false,
      "inputs": [
        {
          "internalType": "string",
          "name": "_id",
          "type": "string"
        },
        {
          "internalType": "uint256",
          "name": "_temp",
          "type": "uint256"
        }
      ],
      "name": "registerMedicine",
      "outputs": [],
      "payable": false,
      "stateMutability": "nonpayable",
      "type": "function"
    },
    {
      "constant": false,
      "inputs": [
        {
          "internalType": "string",
          "name": "_id",
          "type": "string"
        },
        {
          "internalType": "uint256",
          "name": "_temp",
          "type": "uint256"
        }
      ],
      "name": "updateDistributorTemp",
      "outputs": [],
      "payable": false,
      "stateMutability": "nonpayable",
      "type": "function"
    },
    {
      "constant": false,
      "inputs": [
        {
          "internalType": "string",
          "name": "_id",
          "type": "string"
        },
        {
          "internalType": "uint256",
          "name": "_temp",
          "type": "uint256"
        }
      ],
      "name": "updatePharmacyTemp",
      "outputs": [],
      "payable": false,
      "stateMutability": "nonpayable",
      "type": "function"
    }
  ],
  "bytecode": "0x608060405234801561001057600080fd5b506107e5806100206000396000f3fe608060405234801561001057600080fd5b506004361061004c5760003560e01c806314f05d031461005157806321b9da99146101165780637c513b31146101f3578063c1855970146102b8575b600080fd5b6101146004803603604081101561006757600080fd5b810190808035906020019064010000000081111561008457600080fd5b82018360208201111561009657600080fd5b803590602001918460018302840111640100000000831117156100b857600080fd5b91908080601f016020809104026020016040519081016040528093929190818152602001838380828437600081840152601f19601f8201169050808301925050505050505091929192908035906020019092919050505061037d565b005b6101cf6004803603602081101561012c57600080fd5b810190808035906020019064010000000081111561014957600080fd5b82018360208201111561015b57600080fd5b8035906020019184600183028401116401000000008311171561017d57600080fd5b91908080601f016020809104026020016040519081016040528093929190818152602001838380828437600081840152601f19601f8201169050808301925050505050505091929192905050506104cc565b60405180848152602001838152602001828152602001935050505060405180910390f35b6102b66004803603604081101561020957600080fd5b810190808035906020019064010000000081111561022657600080fd5b82018360208201111561023857600080fd5b8035906020019184600183028401116401000000008311171561025a57600080fd5b91908080601f016020809104026020016040519081016040528093929190818152602001838380828437600081840152601f19601f8201169050808301925050505050505091929192908035906020019092919050505061050c565b005b61037b600480360360408110156102ce57600080fd5b81019080803590602001906401000000008111156102eb57600080fd5b8201836020820111156102fd57600080fd5b8035906020019184600183028401116401000000008311171561031f57600080fd5b91908080601f016020809104026020016040519081016040528093929190818152602001838380828437600081840152601f19601f8201169050808301925050505050505091929192908035906020019092919050505061065e565b005b60405180606001604052808281526020016000815260200160008152506000836040518082805190602001908083835b602083106103d057805182526020820191506020810190506020830392506103ad565b6001836020036101000a03801982511681845116808217855250505050505090500191505090815260200160405180910390206000820151816000015560208201518160010155604082015181600201559050507f3713f8651ad52c891038609b6694bb436c057afcbd7872a9cc1e1f3ecaaa91d682826040518080602001838152602001828103825284818151815260200191508051906020019080838360005b8381101561048d578082015181840152602081019050610472565b50505050905090810190601f1680156104ba5780820380516001836020036101000a031916815260200191505b50935050505060405180910390a15050565b6000818051602081018201805184825260208301602085012081835280955050505050506000915090508060000154908060010154908060020154905083565b806000836040518082805190602001908083835b602083106105435780518252602082019150602081019050602083039250610520565b6001836020036101000a0380198251168184511680821785525050505050509050019150509081526020016040518091039020600101819055507f26a897ad8335eb3e75f745105993ca525bd3fcbdd3bb2aaff088b3e5d6bb6db38282604051808060200183815260200180602001838103835285818151815260200191508051906020019080838360005b838110156105ea5780820151818401526020810190506105cf565b50505050905090810190601f1680156106175780820380516001836020036101000a031916815260200191505b508381038252600b8152602001807f6469737472696275746f7200000000000000000000000000000000000000000081525060200194505050505060405180910390a15050565b806000836040518082805190602001908083835b602083106106955780518252602082019150602081019050602083039250610672565b6001836020036101000a0380198251168184511680821785525050505050509050019150509081526020016040518091039020600201819055507f26a897ad8335eb3e75f745105993ca525bd3fcbdd3bb2aaff088b3e5d6bb6db38282604051808060200183815260200180602001838103835285818151815260200191508051906020019080838360005b8381101561073c578082015181840152602081019050610721565b50505050905090810190601f1680156107695780820380516001836020036101000a031916815260200191505b50838103825260088152602001807f706861726d61637900000000000000000000000000000000000000000000000081525060200194505050505060405180910390a1505056fea265627a7a723158206ee36467498913b7a11f9556b883d5f3effeea2bbbc1a2814104fa2670ea285e64736f6c63430005100032",
  "source": "// SPDX-License-Identifier: MIT\r\npragma solidity >=0.4.22 <0.9.0;\r\n\r\ncontract MedicineTemperatureTracker {\r\n    struct Medicine {\r\n        uint tempRegistration;\r\n        uint tempDistributor;\r\n        uint tempPharmacy;\r\n    }\r\n\r\n    mapping(string => Medicine) public medicines;\r\n\r\n    // Event declarations\r\n    event MedicineRegistered(string medicineId, uint temperature);\r\n    event TemperatureUpdated(string medicineId, uint temperature, string phase);\r\n\r\n    // Register a new medicine\r\n    function registerMedicine(string memory _id, uint _temp) public {\r\n        medicines[_id] = Medicine(_temp, 0, 0);\r\n        emit MedicineRegistered(_id, _temp);\r\n    }\r\n\r\n    // Update temperature at distributor\r\n    function updateDistributorTemp(string memory _id, uint _temp) public {\r\n        medicines[_id].tempDistributor = _temp;\r\n        emit TemperatureUpdated(_id, _temp, \"distributor\");\r\n    }\r\n\r\n    // Update temperature at pharmacy\r\n    function updatePharmacyTemp(string memory _id, uint _temp) public {\r\n        medicines[_id].tempPharmacy = _temp;\r\n        emit TemperatureUpdated(_id, _temp, \"pharmacy\");\r\n    }\r\n}\r\n",
  "sourcePath": "C:\\Users\\Lujai\\Documents\\Uni\\Last_semester\\SEC556\\projects\\Pharma_Chain1\\MedicineTemperatureTracker\\contracts\\MedicineTemperatureTracker.sol",
  "compiler": {
    "name": "solc",
    "version": "0.5.16+commit.9c3226ce.Emscripten.clang"
  },
  "schemaVersion": "3.4.16",
  "updatedAt": "2024-06-06T10:41:30.707Z",
  "networkType": "ethereum",
  "devdoc": {
    "methods": {}
  },
  "userdoc": {
    "methods": {}
  }
}